{
  "_format": "hh-sol-artifact-1",
  "contractName": "LotionNFT",
  "sourceName": "contracts/LotionNFT.sol",
  "abi": [
    {
      "inputs": [],
      "stateMutability": "nonpayable",
      "type": "constructor"
    },
    {
      "anonymous": false,
      "inputs": [
        {
          "indexed": true,
          "internalType": "address",
          "name": "owner",
          "type": "address"
        },
        {
          "indexed": true,
          "internalType": "address",
          "name": "approved",
          "type": "address"
        },
        {
          "indexed": true,
          "internalType": "uint256",
          "name": "tokenId",
          "type": "uint256"
        }
      ],
      "name": "Approval",
      "type": "event"
    },
    {
      "anonymous": false,
      "inputs": [
        {
          "indexed": true,
          "internalType": "address",
          "name": "owner",
          "type": "address"
        },
        {
          "indexed": true,
          "internalType": "address",
          "name": "operator",
          "type": "address"
        },
        {
          "indexed": false,
          "internalType": "bool",
          "name": "approved",
          "type": "bool"
        }
      ],
      "name": "ApprovalForAll",
      "type": "event"
    },
    {
      "anonymous": false,
      "inputs": [
        {
          "indexed": true,
          "internalType": "address",
          "name": "from",
          "type": "address"
        },
        {
          "indexed": true,
          "internalType": "address",
          "name": "to",
          "type": "address"
        },
        {
          "indexed": true,
          "internalType": "uint256",
          "name": "tokenId",
          "type": "uint256"
        }
      ],
      "name": "Transfer",
      "type": "event"
    },
    {
      "inputs": [
        {
          "internalType": "address",
          "name": "to",
          "type": "address"
        },
        {
          "internalType": "uint256",
          "name": "tokenId",
          "type": "uint256"
        }
      ],
      "name": "approve",
      "outputs": [],
      "stateMutability": "nonpayable",
      "type": "function"
    },
    {
      "inputs": [
        {
          "internalType": "address",
          "name": "owner",
          "type": "address"
        }
      ],
      "name": "balanceOf",
      "outputs": [
        {
          "internalType": "uint256",
          "name": "",
          "type": "uint256"
        }
      ],
      "stateMutability": "view",
      "type": "function"
    },
    {
      "inputs": [
        {
          "internalType": "address",
          "name": "wallet1",
          "type": "address"
        },
        {
          "internalType": "string",
          "name": "ingredient1FromWallet1",
          "type": "string"
        },
        {
          "internalType": "string",
          "name": "ingredient2FromWallet1",
          "type": "string"
        },
        {
          "internalType": "address",
          "name": "wallet2",
          "type": "address"
        },
        {
          "internalType": "string",
          "name": "ingredient1FromWallet2",
          "type": "string"
        },
        {
          "internalType": "string",
          "name": "ingredient2FromWallet2",
          "type": "string"
        },
        {
          "internalType": "address",
          "name": "wallet3",
          "type": "address"
        },
        {
          "internalType": "string",
          "name": "ingredient1FromWallet3",
          "type": "string"
        },
        {
          "internalType": "string",
          "name": "ingredient2FromWallet3",
          "type": "string"
        }
      ],
      "name": "createLotion",
      "outputs": [
        {
          "internalType": "uint256",
          "name": "",
          "type": "uint256"
        }
      ],
      "stateMutability": "nonpayable",
      "type": "function"
    },
    {
      "inputs": [
        {
          "internalType": "uint256",
          "name": "tokenId",
          "type": "uint256"
        }
      ],
      "name": "getApproved",
      "outputs": [
        {
          "internalType": "address",
          "name": "",
          "type": "address"
        }
      ],
      "stateMutability": "view",
      "type": "function"
    },
    {
      "inputs": [
        {
          "internalType": "uint256",
          "name": "tokenId",
          "type": "uint256"
        }
      ],
      "name": "getLotion",
      "outputs": [
        {
          "internalType": "address[3]",
          "name": "",
          "type": "address[3]"
        },
        {
          "internalType": "string[6]",
          "name": "",
          "type": "string[6]"
        }
      ],
      "stateMutability": "view",
      "type": "function"
    },
    {
      "inputs": [
        {
          "internalType": "address",
          "name": "owner",
          "type": "address"
        },
        {
          "internalType": "address",
          "name": "operator",
          "type": "address"
        }
      ],
      "name": "isApprovedForAll",
      "outputs": [
        {
          "internalType": "bool",
          "name": "",
          "type": "bool"
        }
      ],
      "stateMutability": "view",
      "type": "function"
    },
    {
      "inputs": [],
      "name": "name",
      "outputs": [
        {
          "internalType": "string",
          "name": "",
          "type": "string"
        }
      ],
      "stateMutability": "view",
      "type": "function"
    },
    {
      "inputs": [
        {
          "internalType": "uint256",
          "name": "tokenId",
          "type": "uint256"
        }
      ],
      "name": "ownerOf",
      "outputs": [
        {
          "internalType": "address",
          "name": "",
          "type": "address"
        }
      ],
      "stateMutability": "view",
      "type": "function"
    },
    {
      "inputs": [
        {
          "internalType": "address",
          "name": "from",
          "type": "address"
        },
        {
          "internalType": "address",
          "name": "to",
          "type": "address"
        },
        {
          "internalType": "uint256",
          "name": "tokenId",
          "type": "uint256"
        }
      ],
      "name": "safeTransferFrom",
      "outputs": [],
      "stateMutability": "nonpayable",
      "type": "function"
    },
    {
      "inputs": [
        {
          "internalType": "address",
          "name": "from",
          "type": "address"
        },
        {
          "internalType": "address",
          "name": "to",
          "type": "address"
        },
        {
          "internalType": "uint256",
          "name": "tokenId",
          "type": "uint256"
        },
        {
          "internalType": "bytes",
          "name": "data",
          "type": "bytes"
        }
      ],
      "name": "safeTransferFrom",
      "outputs": [],
      "stateMutability": "nonpayable",
      "type": "function"
    },
    {
      "inputs": [
        {
          "internalType": "address",
          "name": "operator",
          "type": "address"
        },
        {
          "internalType": "bool",
          "name": "approved",
          "type": "bool"
        }
      ],
      "name": "setApprovalForAll",
      "outputs": [],
      "stateMutability": "nonpayable",
      "type": "function"
    },
    {
      "inputs": [
        {
          "internalType": "bytes4",
          "name": "interfaceId",
          "type": "bytes4"
        }
      ],
      "name": "supportsInterface",
      "outputs": [
        {
          "internalType": "bool",
          "name": "",
          "type": "bool"
        }
      ],
      "stateMutability": "view",
      "type": "function"
    },
    {
      "inputs": [],
      "name": "symbol",
      "outputs": [
        {
          "internalType": "string",
          "name": "",
          "type": "string"
        }
      ],
      "stateMutability": "view",
      "type": "function"
    },
    {
      "inputs": [
        {
          "internalType": "uint256",
          "name": "tokenId",
          "type": "uint256"
        }
      ],
      "name": "tokenURI",
      "outputs": [
        {
          "internalType": "string",
          "name": "",
          "type": "string"
        }
      ],
      "stateMutability": "view",
      "type": "function"
    },
    {
      "inputs": [
        {
          "internalType": "address",
          "name": "from",
          "type": "address"
        },
        {
          "internalType": "address",
          "name": "to",
          "type": "address"
        },
        {
          "internalType": "uint256",
          "name": "tokenId",
          "type": "uint256"
        }
      ],
      "name": "transferFrom",
      "outputs": [],
      "stateMutability": "nonpayable",
      "type": "function"
    }
  ],
  "bytecode": "0x60806040523480156200001157600080fd5b506040518060400160405280600981526020017f4c6f74696f6e4e465400000000000000000000000000000000000000000000008152506040518060400160405280600481526020017f4c4e46540000000000000000000000000000000000000000000000000000000081525081600090816200008f919062000324565b508060019081620000a1919062000324565b5050506200040b565b600081519050919050565b7f4e487b7100000000000000000000000000000000000000000000000000000000600052604160045260246000fd5b7f4e487b7100000000000000000000000000000000000000000000000000000000600052602260045260246000fd5b600060028204905060018216806200012c57607f821691505b602082108103620001425762000141620000e4565b5b50919050565b60008190508160005260206000209050919050565b60006020601f8301049050919050565b600082821b905092915050565b600060088302620001ac7fffffffffffffffffffffffffffffffffffffffffffffffffffffffffffffffff826200016d565b620001b886836200016d565b95508019841693508086168417925050509392505050565b6000819050919050565b6000819050919050565b600062000205620001ff620001f984620001d0565b620001da565b620001d0565b9050919050565b6000819050919050565b6200022183620001e4565b6200023962000230826200020c565b8484546200017a565b825550505050565b600090565b6200025062000241565b6200025d81848462000216565b505050565b5b8181101562000285576200027960008262000246565b60018101905062000263565b5050565b601f821115620002d4576200029e8162000148565b620002a9846200015d565b81016020851015620002b9578190505b620002d1620002c8856200015d565b83018262000262565b50505b505050565b600082821c905092915050565b6000620002f960001984600802620002d9565b1980831691505092915050565b6000620003148383620002e6565b9150826002028217905092915050565b6200032f82620000aa565b67ffffffffffffffff8111156200034b576200034a620000b5565b5b62000357825462000113565b6200036482828562000289565b600060209050601f8311600181146200039c576000841562000387578287015190505b62000393858262000306565b86555062000403565b601f198416620003ac8662000148565b60005b82811015620003d657848901518255600182019150602085019450602081019050620003af565b86831015620003f65784890151620003f2601f891682620002e6565b8355505b6001600288020188555050505b505050505050565b613229806200041b6000396000f3fe608060405234801561001057600080fd5b50600436106100f55760003560e01c80635613500011610097578063a22cb46511610066578063a22cb465146102ab578063b88d4fde146102c7578063c87b56dd146102e3578063e985e9c514610313576100f5565b806356135000146101fd5780636352211e1461022d57806370a082311461025d57806395d89b411461028d576100f5565b8063095ea7b3116100d3578063095ea7b31461017857806323b872dd1461019457806331abbe6e146101b057806342842e0e146101e1576100f5565b806301ffc9a7146100fa57806306fdde031461012a578063081812fc14610148575b600080fd5b610114600480360381019061010f9190611d87565b610343565b6040516101219190611dcf565b60405180910390f35b610132610425565b60405161013f9190611e7a565b60405180910390f35b610162600480360381019061015d9190611ed2565b6104b7565b60405161016f9190611f40565b60405180910390f35b610192600480360381019061018d9190611f87565b6104fd565b005b6101ae60048036038101906101a99190611fc7565b610614565b005b6101ca60048036038101906101c59190611ed2565b610674565b6040516101d89291906121c5565b60405180910390f35b6101fb60048036038101906101f69190611fc7565b610831565b005b6102176004803603810190610212919061232a565b610851565b60405161022491906124ab565b60405180910390f35b61024760048036038101906102429190611ed2565b610af6565b6040516102549190611f40565b60405180910390f35b610277600480360381019061027291906124c6565b610b7c565b60405161028491906124ab565b60405180910390f35b610295610c33565b6040516102a29190611e7a565b60405180910390f35b6102c560048036038101906102c0919061251f565b610cc5565b005b6102e160048036038101906102dc9190612600565b610cdb565b005b6102fd60048036038101906102f89190611ed2565b610d3d565b60405161030a9190611e7a565b60405180910390f35b61032d60048036038101906103289190612683565b610da5565b60405161033a9190611dcf565b60405180910390f35b60007f80ac58cd000000000000000000000000000000000000000000000000000000007bffffffffffffffffffffffffffffffffffffffffffffffffffffffff1916827bffffffffffffffffffffffffffffffffffffffffffffffffffffffff1916148061040e57507f5b5e139f000000000000000000000000000000000000000000000000000000007bffffffffffffffffffffffffffffffffffffffffffffffffffffffff1916827bffffffffffffffffffffffffffffffffffffffffffffffffffffffff1916145b8061041e575061041d82610e39565b5b9050919050565b606060008054610434906126f2565b80601f0160208091040260200160405190810160405280929190818152602001828054610460906126f2565b80156104ad5780601f10610482576101008083540402835291602001916104ad565b820191906000526020600020905b81548152906001019060200180831161049057829003601f168201915b5050505050905090565b60006104c282610ea3565b6004600083815260200190815260200160002060009054906101000a900473ffffffffffffffffffffffffffffffffffffffff169050919050565b600061050882610af6565b90508073ffffffffffffffffffffffffffffffffffffffff168373ffffffffffffffffffffffffffffffffffffffff1603610578576040517f08c379a000000000000000000000000000000000000000000000000000000000815260040161056f90612795565b60405180910390fd5b8073ffffffffffffffffffffffffffffffffffffffff16610597610eee565b73ffffffffffffffffffffffffffffffffffffffff1614806105c657506105c5816105c0610eee565b610da5565b5b610605576040517f08c379a00000000000000000000000000000000000000000000000000000000081526004016105fc90612827565b60405180910390fd5b61060f8383610ef6565b505050565b61062561061f610eee565b82610faf565b610664576040517f08c379a000000000000000000000000000000000000000000000000000000000815260040161065b906128b9565b60405180910390fd5b61066f838383611044565b505050565b61067c611cd2565b610684611cf4565b61068d8361133d565b6106cc576040517f08c379a00000000000000000000000000000000000000000000000000000000081526004016106c390612925565b60405180910390fd5b600760008481526020019081526020016000206008600085815260200190815260200160002081600380602002604051908101604052809291908260038015610760576020028201915b8160009054906101000a900473ffffffffffffffffffffffffffffffffffffffff1673ffffffffffffffffffffffffffffffffffffffff1681526020019060010190808311610716575b5050505050915080600680602002604051908101604052809291906000905b82821015610822578382018054610795906126f2565b80601f01602080910402602001604051908101604052809291908181526020018280546107c1906126f2565b801561080e5780601f106107e35761010080835404028352916020019161080e565b820191906000526020600020905b8154815290600101906020018083116107f157829003601f168201915b50505050508152602001906001019061077f565b50505050905091509150915091565b61084c83838360405180602001604052806000815250610cdb565b505050565b600061085d600661137e565b60006108696006611394565b905061087533826113a2565b8a6007600083815260200190815260200160002060006003811061089c5761089b612945565b5b0160006101000a81548173ffffffffffffffffffffffffffffffffffffffff021916908373ffffffffffffffffffffffffffffffffffffffff160217905550876007600083815260200190815260200160002060016003811061090257610901612945565b5b0160006101000a81548173ffffffffffffffffffffffffffffffffffffffff021916908373ffffffffffffffffffffffffffffffffffffffff160217905550846007600083815260200190815260200160002060026003811061096857610967612945565b5b0160006101000a81548173ffffffffffffffffffffffffffffffffffffffff021916908373ffffffffffffffffffffffffffffffffffffffff16021790555089600860008381526020019081526020016000206000600681106109ce576109cd612945565b5b0190816109db9190612b20565b508860086000838152602001908152602001600020600160068110610a0357610a02612945565b5b019081610a109190612b20565b508660086000838152602001908152602001600020600260068110610a3857610a37612945565b5b019081610a459190612b20565b508560086000838152602001908152602001600020600360068110610a6d57610a6c612945565b5b019081610a7a9190612b20565b508360086000838152602001908152602001600020600460068110610aa257610aa1612945565b5b019081610aaf9190612b20565b508260086000838152602001908152602001600020600560068110610ad757610ad6612945565b5b019081610ae49190612b20565b50809150509998505050505050505050565b600080610b02836115bf565b9050600073ffffffffffffffffffffffffffffffffffffffff168173ffffffffffffffffffffffffffffffffffffffff1603610b73576040517f08c379a0000000000000000000000000000000000000000000000000000000008152600401610b6a90612c3e565b60405180910390fd5b80915050919050565b60008073ffffffffffffffffffffffffffffffffffffffff168273ffffffffffffffffffffffffffffffffffffffff1603610bec576040517f08c379a0000000000000000000000000000000000000000000000000000000008152600401610be390612cd0565b60405180910390fd5b600360008373ffffffffffffffffffffffffffffffffffffffff1673ffffffffffffffffffffffffffffffffffffffff168152602001908152602001600020549050919050565b606060018054610c42906126f2565b80601f0160208091040260200160405190810160405280929190818152602001828054610c6e906126f2565b8015610cbb5780601f10610c9057610100808354040283529160200191610cbb565b820191906000526020600020905b815481529060010190602001808311610c9e57829003601f168201915b5050505050905090565b610cd7610cd0610eee565b83836115fc565b5050565b610cec610ce6610eee565b83610faf565b610d2b576040517f08c379a0000000000000000000000000000000000000000000000000000000008152600401610d22906128b9565b60405180910390fd5b610d3784848484611768565b50505050565b6060610d4882610ea3565b6000610d526117c4565b90506000815111610d725760405180602001604052806000815250610d9d565b80610d7c846117db565b604051602001610d8d929190612d2c565b6040516020818303038152906040525b915050919050565b6000600560008473ffffffffffffffffffffffffffffffffffffffff1673ffffffffffffffffffffffffffffffffffffffff16815260200190815260200160002060008373ffffffffffffffffffffffffffffffffffffffff1673ffffffffffffffffffffffffffffffffffffffff16815260200190815260200160002060009054906101000a900460ff16905092915050565b60007f01ffc9a7000000000000000000000000000000000000000000000000000000007bffffffffffffffffffffffffffffffffffffffffffffffffffffffff1916827bffffffffffffffffffffffffffffffffffffffffffffffffffffffff1916149050919050565b610eac8161133d565b610eeb576040517f08c379a0000000000000000000000000000000000000000000000000000000008152600401610ee290612c3e565b60405180910390fd5b50565b600033905090565b816004600083815260200190815260200160002060006101000a81548173ffffffffffffffffffffffffffffffffffffffff021916908373ffffffffffffffffffffffffffffffffffffffff160217905550808273ffffffffffffffffffffffffffffffffffffffff16610f6983610af6565b73ffffffffffffffffffffffffffffffffffffffff167f8c5be1e5ebec7d5bd14f71427d1e84f3dd0314c0f7b2291e5b200ac8c7c3b92560405160405180910390a45050565b600080610fbb83610af6565b90508073ffffffffffffffffffffffffffffffffffffffff168473ffffffffffffffffffffffffffffffffffffffff161480610ffd5750610ffc8185610da5565b5b8061103b57508373ffffffffffffffffffffffffffffffffffffffff16611023846104b7565b73ffffffffffffffffffffffffffffffffffffffff16145b91505092915050565b8273ffffffffffffffffffffffffffffffffffffffff1661106482610af6565b73ffffffffffffffffffffffffffffffffffffffff16146110ba576040517f08c379a00000000000000000000000000000000000000000000000000000000081526004016110b190612dc2565b60405180910390fd5b600073ffffffffffffffffffffffffffffffffffffffff168273ffffffffffffffffffffffffffffffffffffffff1603611129576040517f08c379a000000000000000000000000000000000000000000000000000000000815260040161112090612e54565b60405180910390fd5b61113683838360016118a9565b8273ffffffffffffffffffffffffffffffffffffffff1661115682610af6565b73ffffffffffffffffffffffffffffffffffffffff16146111ac576040517f08c379a00000000000000000000000000000000000000000000000000000000081526004016111a390612dc2565b60405180910390fd5b6004600082815260200190815260200160002060006101000a81549073ffffffffffffffffffffffffffffffffffffffff02191690556001600360008573ffffffffffffffffffffffffffffffffffffffff1673ffffffffffffffffffffffffffffffffffffffff168152602001908152602001600020600082825403925050819055506001600360008473ffffffffffffffffffffffffffffffffffffffff1673ffffffffffffffffffffffffffffffffffffffff16815260200190815260200160002060008282540192505081905550816002600083815260200190815260200160002060006101000a81548173ffffffffffffffffffffffffffffffffffffffff021916908373ffffffffffffffffffffffffffffffffffffffff160217905550808273ffffffffffffffffffffffffffffffffffffffff168473ffffffffffffffffffffffffffffffffffffffff167fddf252ad1be2c89b69c2b068fc378daa952ba7f163c4a11628f55a4df523b3ef60405160405180910390a461133883838360016119cf565b505050565b60008073ffffffffffffffffffffffffffffffffffffffff1661135f836115bf565b73ffffffffffffffffffffffffffffffffffffffff1614159050919050565b6001816000016000828254019250508190555050565b600081600001549050919050565b600073ffffffffffffffffffffffffffffffffffffffff168273ffffffffffffffffffffffffffffffffffffffff1603611411576040517f08c379a000000000000000000000000000000000000000000000000000000000815260040161140890612ec0565b60405180910390fd5b61141a8161133d565b1561145a576040517f08c379a000000000000000000000000000000000000000000000000000000000815260040161145190612f2c565b60405180910390fd5b6114686000838360016118a9565b6114718161133d565b156114b1576040517f08c379a00000000000000000000000000000000000000000000000000000000081526004016114a890612f2c565b60405180910390fd5b6001600360008473ffffffffffffffffffffffffffffffffffffffff1673ffffffffffffffffffffffffffffffffffffffff16815260200190815260200160002060008282540192505081905550816002600083815260200190815260200160002060006101000a81548173ffffffffffffffffffffffffffffffffffffffff021916908373ffffffffffffffffffffffffffffffffffffffff160217905550808273ffffffffffffffffffffffffffffffffffffffff16600073ffffffffffffffffffffffffffffffffffffffff167fddf252ad1be2c89b69c2b068fc378daa952ba7f163c4a11628f55a4df523b3ef60405160405180910390a46115bb6000838360016119cf565b5050565b60006002600083815260200190815260200160002060009054906101000a900473ffffffffffffffffffffffffffffffffffffffff169050919050565b8173ffffffffffffffffffffffffffffffffffffffff168373ffffffffffffffffffffffffffffffffffffffff160361166a576040517f08c379a000000000000000000000000000000000000000000000000000000000815260040161166190612f98565b60405180910390fd5b80600560008573ffffffffffffffffffffffffffffffffffffffff1673ffffffffffffffffffffffffffffffffffffffff16815260200190815260200160002060008473ffffffffffffffffffffffffffffffffffffffff1673ffffffffffffffffffffffffffffffffffffffff16815260200190815260200160002060006101000a81548160ff0219169083151502179055508173ffffffffffffffffffffffffffffffffffffffff168373ffffffffffffffffffffffffffffffffffffffff167f17307eab39ab6107e8899845ad3d59bd9653f200f220920489ca2b5937696c318360405161175b9190611dcf565b60405180910390a3505050565b611773848484611044565b61177f848484846119d5565b6117be576040517f08c379a00000000000000000000000000000000000000000000000000000000081526004016117b59061302a565b60405180910390fd5b50505050565b606060405180602001604052806000815250905090565b6060600060016117ea84611b5c565b01905060008167ffffffffffffffff811115611809576118086121ff565b5b6040519080825280601f01601f19166020018201604052801561183b5781602001600182028036833780820191505090505b509050600082602001820190505b60011561189e578080600190039150507f3031323334353637383961626364656600000000000000000000000000000000600a86061a8153600a85816118925761189161304a565b5b04945060008503611849575b819350505050919050565b60018111156119c957600073ffffffffffffffffffffffffffffffffffffffff168473ffffffffffffffffffffffffffffffffffffffff161461193d5780600360008673ffffffffffffffffffffffffffffffffffffffff1673ffffffffffffffffffffffffffffffffffffffff168152602001908152602001600020600082825461193591906130a8565b925050819055505b600073ffffffffffffffffffffffffffffffffffffffff168373ffffffffffffffffffffffffffffffffffffffff16146119c85780600360008573ffffffffffffffffffffffffffffffffffffffff1673ffffffffffffffffffffffffffffffffffffffff16815260200190815260200160002060008282546119c091906130dc565b925050819055505b5b50505050565b50505050565b60006119f68473ffffffffffffffffffffffffffffffffffffffff16611caf565b15611b4f578373ffffffffffffffffffffffffffffffffffffffff1663150b7a02611a1f610eee565b8786866040518563ffffffff1660e01b8152600401611a419493929190613165565b6020604051808303816000875af1925050508015611a7d57506040513d601f19601f82011682018060405250810190611a7a91906131c6565b60015b611aff573d8060008114611aad576040519150601f19603f3d011682016040523d82523d6000602084013e611ab2565b606091505b506000815103611af7576040517f08c379a0000000000000000000000000000000000000000000000000000000008152600401611aee9061302a565b60405180910390fd5b805181602001fd5b63150b7a0260e01b7bffffffffffffffffffffffffffffffffffffffffffffffffffffffff1916817bffffffffffffffffffffffffffffffffffffffffffffffffffffffff191614915050611b54565b600190505b949350505050565b600080600090507a184f03e93ff9f4daa797ed6e38ed64bf6a1f0100000000000000008310611bba577a184f03e93ff9f4daa797ed6e38ed64bf6a1f0100000000000000008381611bb057611baf61304a565b5b0492506040810190505b6d04ee2d6d415b85acef81000000008310611bf7576d04ee2d6d415b85acef81000000008381611bed57611bec61304a565b5b0492506020810190505b662386f26fc100008310611c2657662386f26fc100008381611c1c57611c1b61304a565b5b0492506010810190505b6305f5e1008310611c4f576305f5e1008381611c4557611c4461304a565b5b0492506008810190505b6127108310611c74576127108381611c6a57611c6961304a565b5b0492506004810190505b60648310611c975760648381611c8d57611c8c61304a565b5b0492506002810190505b600a8310611ca6576001810190505b80915050919050565b6000808273ffffffffffffffffffffffffffffffffffffffff163b119050919050565b6040518060600160405280600390602082028036833780820191505090505090565b6040518060c001604052806006905b6060815260200190600190039081611d035790505090565b6000604051905090565b600080fd5b600080fd5b60007fffffffff0000000000000000000000000000000000000000000000000000000082169050919050565b611d6481611d2f565b8114611d6f57600080fd5b50565b600081359050611d8181611d5b565b92915050565b600060208284031215611d9d57611d9c611d25565b5b6000611dab84828501611d72565b91505092915050565b60008115159050919050565b611dc981611db4565b82525050565b6000602082019050611de46000830184611dc0565b92915050565b600081519050919050565b600082825260208201905092915050565b60005b83811015611e24578082015181840152602081019050611e09565b60008484015250505050565b6000601f19601f8301169050919050565b6000611e4c82611dea565b611e568185611df5565b9350611e66818560208601611e06565b611e6f81611e30565b840191505092915050565b60006020820190508181036000830152611e948184611e41565b905092915050565b6000819050919050565b611eaf81611e9c565b8114611eba57600080fd5b50565b600081359050611ecc81611ea6565b92915050565b600060208284031215611ee857611ee7611d25565b5b6000611ef684828501611ebd565b91505092915050565b600073ffffffffffffffffffffffffffffffffffffffff82169050919050565b6000611f2a82611eff565b9050919050565b611f3a81611f1f565b82525050565b6000602082019050611f556000830184611f31565b92915050565b611f6481611f1f565b8114611f6f57600080fd5b50565b600081359050611f8181611f5b565b92915050565b60008060408385031215611f9e57611f9d611d25565b5b6000611fac85828601611f72565b9250506020611fbd85828601611ebd565b9150509250929050565b600080600060608486031215611fe057611fdf611d25565b5b6000611fee86828701611f72565b9350506020611fff86828701611f72565b925050604061201086828701611ebd565b9150509250925092565b600060039050919050565b600081905092915050565b6000819050919050565b61204381611f1f565b82525050565b6000612055838361203a565b60208301905092915050565b6000602082019050919050565b6120778161201a565b6120818184612025565b925061208c82612030565b8060005b838110156120bd5781516120a48782612049565b96506120af83612061565b925050600181019050612090565b505050505050565b600060069050919050565b600081905092915050565b6000819050919050565b600082825260208201905092915050565b600061210182611dea565b61210b81856120e5565b935061211b818560208601611e06565b61212481611e30565b840191505092915050565b600061213b83836120f6565b905092915050565b6000602082019050919050565b600061215b826120c5565b61216581856120d0565b935083602082028501612177856120db565b8060005b858110156121b35784840389528151612194858261212f565b945061219f83612143565b925060208a0199505060018101905061217b565b50829750879550505050505092915050565b60006080820190506121da600083018561206e565b81810360608301526121ec8184612150565b90509392505050565b600080fd5b600080fd5b7f4e487b7100000000000000000000000000000000000000000000000000000000600052604160045260246000fd5b61223782611e30565b810181811067ffffffffffffffff82111715612256576122556121ff565b5b80604052505050565b6000612269611d1b565b9050612275828261222e565b919050565b600067ffffffffffffffff821115612295576122946121ff565b5b61229e82611e30565b9050602081019050919050565b82818337600083830152505050565b60006122cd6122c88461227a565b61225f565b9050828152602081018484840111156122e9576122e86121fa565b5b6122f48482856122ab565b509392505050565b600082601f830112612311576123106121f5565b5b81356123218482602086016122ba565b91505092915050565b60008060008060008060008060006101208a8c03121561234d5761234c611d25565b5b600061235b8c828d01611f72565b99505060208a013567ffffffffffffffff81111561237c5761237b611d2a565b5b6123888c828d016122fc565b98505060408a013567ffffffffffffffff8111156123a9576123a8611d2a565b5b6123b58c828d016122fc565b97505060606123c68c828d01611f72565b96505060808a013567ffffffffffffffff8111156123e7576123e6611d2a565b5b6123f38c828d016122fc565b95505060a08a013567ffffffffffffffff81111561241457612413611d2a565b5b6124208c828d016122fc565b94505060c06124318c828d01611f72565b93505060e08a013567ffffffffffffffff81111561245257612451611d2a565b5b61245e8c828d016122fc565b9250506101008a013567ffffffffffffffff8111156124805761247f611d2a565b5b61248c8c828d016122fc565b9150509295985092959850929598565b6124a581611e9c565b82525050565b60006020820190506124c0600083018461249c565b92915050565b6000602082840312156124dc576124db611d25565b5b60006124ea84828501611f72565b91505092915050565b6124fc81611db4565b811461250757600080fd5b50565b600081359050612519816124f3565b92915050565b6000806040838503121561253657612535611d25565b5b600061254485828601611f72565b92505060206125558582860161250a565b9150509250929050565b600067ffffffffffffffff82111561257a576125796121ff565b5b61258382611e30565b9050602081019050919050565b60006125a361259e8461255f565b61225f565b9050828152602081018484840111156125bf576125be6121fa565b5b6125ca8482856122ab565b509392505050565b600082601f8301126125e7576125e66121f5565b5b81356125f7848260208601612590565b91505092915050565b6000806000806080858703121561261a57612619611d25565b5b600061262887828801611f72565b945050602061263987828801611f72565b935050604061264a87828801611ebd565b925050606085013567ffffffffffffffff81111561266b5761266a611d2a565b5b612677878288016125d2565b91505092959194509250565b6000806040838503121561269a57612699611d25565b5b60006126a885828601611f72565b92505060206126b985828601611f72565b9150509250929050565b7f4e487b7100000000000000000000000000000000000000000000000000000000600052602260045260246000fd5b6000600282049050600182168061270a57607f821691505b60208210810361271d5761271c6126c3565b5b50919050565b7f4552433732313a20617070726f76616c20746f2063757272656e74206f776e6560008201527f7200000000000000000000000000000000000000000000000000000000000000602082015250565b600061277f602183611df5565b915061278a82612723565b604082019050919050565b600060208201905081810360008301526127ae81612772565b9050919050565b7f4552433732313a20617070726f76652063616c6c6572206973206e6f7420746f60008201527f6b656e206f776e6572206f7220617070726f76656420666f7220616c6c000000602082015250565b6000612811603d83611df5565b915061281c826127b5565b604082019050919050565b6000602082019050818103600083015261284081612804565b9050919050565b7f4552433732313a2063616c6c6572206973206e6f7420746f6b656e206f776e6560008201527f72206f7220617070726f76656400000000000000000000000000000000000000602082015250565b60006128a3602d83611df5565b91506128ae82612847565b604082019050919050565b600060208201905081810360008301526128d281612896565b9050919050565b7f4c6f74696f6e20646f6573206e6f742065786973740000000000000000000000600082015250565b600061290f601583611df5565b915061291a826128d9565b602082019050919050565b6000602082019050818103600083015261293e81612902565b9050919050565b7f4e487b7100000000000000000000000000000000000000000000000000000000600052603260045260246000fd5b60008190508160005260206000209050919050565b60006020601f8301049050919050565b600082821b905092915050565b6000600883026129d67fffffffffffffffffffffffffffffffffffffffffffffffffffffffffffffffff82612999565b6129e08683612999565b95508019841693508086168417925050509392505050565b6000819050919050565b6000612a1d612a18612a1384611e9c565b6129f8565b611e9c565b9050919050565b6000819050919050565b612a3783612a02565b612a4b612a4382612a24565b8484546129a6565b825550505050565b600090565b612a60612a53565b612a6b818484612a2e565b505050565b5b81811015612a8f57612a84600082612a58565b600181019050612a71565b5050565b601f821115612ad457612aa581612974565b612aae84612989565b81016020851015612abd578190505b612ad1612ac985612989565b830182612a70565b50505b505050565b600082821c905092915050565b6000612af760001984600802612ad9565b1980831691505092915050565b6000612b108383612ae6565b9150826002028217905092915050565b612b2982611dea565b67ffffffffffffffff811115612b4257612b416121ff565b5b612b4c82546126f2565b612b57828285612a93565b600060209050601f831160018114612b8a5760008415612b78578287015190505b612b828582612b04565b865550612bea565b601f198416612b9886612974565b60005b82811015612bc057848901518255600182019150602085019450602081019050612b9b565b86831015612bdd5784890151612bd9601f891682612ae6565b8355505b6001600288020188555050505b505050505050565b7f4552433732313a20696e76616c696420746f6b656e2049440000000000000000600082015250565b6000612c28601883611df5565b9150612c3382612bf2565b602082019050919050565b60006020820190508181036000830152612c5781612c1b565b9050919050565b7f4552433732313a2061646472657373207a65726f206973206e6f74206120766160008201527f6c6964206f776e65720000000000000000000000000000000000000000000000602082015250565b6000612cba602983611df5565b9150612cc582612c5e565b604082019050919050565b60006020820190508181036000830152612ce981612cad565b9050919050565b600081905092915050565b6000612d0682611dea565b612d108185612cf0565b9350612d20818560208601611e06565b80840191505092915050565b6000612d388285612cfb565b9150612d448284612cfb565b91508190509392505050565b7f4552433732313a207472616e736665722066726f6d20696e636f72726563742060008201527f6f776e6572000000000000000000000000000000000000000000000000000000602082015250565b6000612dac602583611df5565b9150612db782612d50565b604082019050919050565b60006020820190508181036000830152612ddb81612d9f565b9050919050565b7f4552433732313a207472616e7366657220746f20746865207a65726f2061646460008201527f7265737300000000000000000000000000000000000000000000000000000000602082015250565b6000612e3e602483611df5565b9150612e4982612de2565b604082019050919050565b60006020820190508181036000830152612e6d81612e31565b9050919050565b7f4552433732313a206d696e7420746f20746865207a65726f2061646472657373600082015250565b6000612eaa602083611df5565b9150612eb582612e74565b602082019050919050565b60006020820190508181036000830152612ed981612e9d565b9050919050565b7f4552433732313a20746f6b656e20616c7265616479206d696e74656400000000600082015250565b6000612f16601c83611df5565b9150612f2182612ee0565b602082019050919050565b60006020820190508181036000830152612f4581612f09565b9050919050565b7f4552433732313a20617070726f766520746f2063616c6c657200000000000000600082015250565b6000612f82601983611df5565b9150612f8d82612f4c565b602082019050919050565b60006020820190508181036000830152612fb181612f75565b9050919050565b7f4552433732313a207472616e7366657220746f206e6f6e20455243373231526560008201527f63656976657220696d706c656d656e7465720000000000000000000000000000602082015250565b6000613014603283611df5565b915061301f82612fb8565b604082019050919050565b6000602082019050818103600083015261304381613007565b9050919050565b7f4e487b7100000000000000000000000000000000000000000000000000000000600052601260045260246000fd5b7f4e487b7100000000000000000000000000000000000000000000000000000000600052601160045260246000fd5b60006130b382611e9c565b91506130be83611e9c565b92508282039050818111156130d6576130d5613079565b5b92915050565b60006130e782611e9c565b91506130f283611e9c565b925082820190508082111561310a57613109613079565b5b92915050565b600081519050919050565b600082825260208201905092915050565b600061313782613110565b613141818561311b565b9350613151818560208601611e06565b61315a81611e30565b840191505092915050565b600060808201905061317a6000830187611f31565b6131876020830186611f31565b613194604083018561249c565b81810360608301526131a6818461312c565b905095945050505050565b6000815190506131c081611d5b565b92915050565b6000602082840312156131dc576131db611d25565b5b60006131ea848285016131b1565b9150509291505056fea2646970667358221220474acaf8c11e9b712ad9d6b48763041524eb0c4a660eba1d3398277f39d3314164736f6c63430008110033",
  "linkReferences": {},
  "deployedLinkReferences": {}
}